:020000040800F2
:10000000500400200D100008510F0008530F000885
:10001000550F0008570F0008590F00080000000096
:100020000000000000000000000000005B0F00085E
:100030005D0F0008000000005F0F0008610F00085E
:10004000291000082D100008311000083510000894
:10005000391000083D100008411000084510000844
:10006000491000084D1000085110000855100008F4
:10007000591000085D1000086110000865100008A4
:10008000691000086D1000087110000800000000E1
:1000900000000000000000000000000075100008D3
:1000A000791000087D1000088110000885100008F4
:1000B000891000088D1000089110000895100008A4
:1000C000991000089D100008A1100008A510000854
:1000D000A9100008AD100008B1100008B510000804
:1000E000B9100008BD100008C11000080000000091
:1000F0000000000000000000000000000000000000
:1001000000000000000000000000000000000000EF
:100110000000000000000000C5100008650F000886
:1001200038B500F099FADFF8E8440546206840F059
:10013000010020602168880706D400F08DFA401B7A
:100140000328F7D3032032BD206820F0F80040F0E8
:100150008000206000F080FA002161600546606840
:1001600010F00C0F07D000F077FA401B41F28931F4
:100170008842F4D3E6E7DFF89C24DFF89C04DFF83C
:100180009C141060086800F06DFA08B1012032BDBF
:1001900000F062FA0546206820F080702060216837
:1001A000880105D500F058FA401B0328F7D3C9E7AA
:1001B0000020606000F050FA216821F410212160D5
:1001C00005462068810305D500F046FA401B6528E6
:1001D000F7D3B7E7206820F4802020600021E16297
:1001E000606A40F080706062A160002032BD2DE93D
:1001F000F843040016D02078DFF81464C10713D543
:10020000706800F00C00042807D0706800F00C0043
:10021000082841D17068C1033ED53068810303D5F9
:100220006068002800F064812078DFF8F4738107AB
:1002300019D5706810F00C0F07D0706800F00C0032
:10024000082861D17068C1035ED43068810703D586
:100250002069012840F04C813168606921F0F80183
:1002600041EAC00131602178080740F18180A0692E
:10027000DFF8B013002800F0A68001220A6000F029
:10028000EBF90546706A810763D400F0E5F9401B7D
:100290000228F7D903202EE16068B0F5803F04D131
:1002A000306840F48030306014E008B930680AE00B
:1002B000B0F5A02F306806D140F48020306031685E
:1002C00041F4803105E020F480303060316821F461
:1002D00080213160606858B100F0BEF90546306891
:1002E0008103A1D400F0B8F9401B6528F7D3D1E70A
:1002F00000F0B2F905463068810395D500F0ACF9FD
:10030000401B6528F7D3C5E72069A8B101213960F2
:1003100000F0A2F905463068810705D400F09CF989
:10032000401B0228F7D9B5E73068616920F0F80072
:1003300040EAC100306096E7386000F08DF905466C
:10034000316888078FD500F087F9401B0228F7D95C
:10035000A0E7DFF8C0020168C9084FF47A72B1FB68
:10036000F2F2009200BF0098411E00280091F9D1DE
:10037000207841076ED5F0690025C10009D4F069E5
:1003800040F08050F0610125F06900F0805000904D
:100390000098DFF89482D8F80000C10520D4D8F87E
:1003A000000040F48070C8F8000000F055F9814664
:1003B000D8F80000C10513D400F04EF9A0EB0900F5
:1003C0006528F5D366E7086000F046F90546706ACF
:1003D0008107CDD500F040F9401B0228F7D959E735
:1003E000E068012808D008B9306A09E00528306AB9
:1003F00006D140F004003062306A40F0010005E0B0
:10040000400840003062306A20F00400306241F25F
:100410008938E06860B100F01FF98146306A8107D1
:1004200013D400F019F9A0EB09004045F6D331E7E9
:1004300000F012F98146306A810706D500F00CF908
:10044000A0EB09004045F6D324E71DB1F06920F088
:100450008050F061E06900284CD0716801F00C0117
:10046000082938D002282AD100F047F8054630681C
:10047000810105D500F0F0F8401B0228F7D909E703
:10048000206AB0F5803F05D1F16AA068090940EA09
:100490000111F1627268206A616A22F474120243E7
:1004A0000A437260012000F029F804463068810197
:1004B00020D400F0D1F8001B0228F7D9EAE600F0BA
:1004C0001CF804463068810114D500F0C5F8001B03
:1004D0000228F7D9DEE601280AD07068226A00F403
:1004E0008031914202BF00F47010616A884201D0ED
:1004F000012000E00020BDE8F2830020386600F013
:10050000ABB870B504003FD02068414D810712D5CB
:10051000400703D5696841F4E0616960207801070C
:1005200003D5686840F4605068606968A06821F08D
:10053000F001014369602178C80727D56068012868
:100540001AD129688A031FD56968890840EA8100A1
:10055000686000F081F806466868616800F00C0089
:10056000B0EB810F12D000F077F8801B41F2893197
:100570008842F1D3032070BD0228296802D18A0184
:10058000E2D401E08A07DFD4012070BD2078410762
:1005900005D56A68E06822F4E06202436A60217867
:1005A000080706D56968206921F4605141EAC00155
:1005B000696000F00FF86A681C49164BC2F3031219
:1005C000895CC84018601548006800F04BF80020AE
:1005D00070BD0000164910480A6802F00C03082B91
:1005E00000D0704710B500BF13A4C2F38343D203F9
:1005F000E35C09D5896A00BF13A201F00F015843DB
:10060000535CB0FBF3F010BD18460A49484310BDD7
:10061000001002400C00002000127A0008000020A8
:10062000000042428004424200700040080F00086F
:100630000410024000093D000203040506070809F2
:100640000A0B0C0D0E0F101001020304050607081B
:10065000090A0B0C0D0E0F1001484068704700BFCF
:100660000000002038B50D4D0D4B2A7804464FF49C
:100670007A711868B1FBF2F2B0FBF2F000F054F8B6
:1006800050B9102C08D2002221464FF0FF3000F064
:1006900023F8AC60002032BD012032BD00000020F4
:1006A0000C0000200901020002D42948815470473F
:1006B000284B02F00F021A4402F8041C7047264B24
:1006C00019684FF6FF020002114000F4E060084391
:1006D000224908431860704770B51F4B1C68C4F36B
:1006E00002230124C3F10705052D2EBF0F2504FAAF
:1006F00005F56D1E1E1D072E34BF0023DB1E29408D
:10070000994004FA03F3BDE870405B1E1A401143A0
:10071000C8E7010007D4012200F01F01104B8A40F6
:10072000400943F82020704710B5401EB0F1807F8B
:1007300001D3012010BD0B4C60600F214FF0FF3042
:10074000FFF7B0FF0021A16007202060002010BD4E
:1007500000E400E018ED00E00CED00E00000FA0518
:1007600000E100E010E000E038B5040001D1012014
:1007700032BD00F024F818B900F01DF800F035F98A
:100780000FE00068C16841F00101C160816801F0BB
:100790000701062903D0016841F001010160002032
:1007A000704702206870211D206800F0B0F8012019
:1007B0006870002032BD002129702046704704F186
:1007C0003C056878704710B50446206801698A07BF
:1007D00015D5C1688A0712D56FF0020101610122A7
:1007E0002277806910F0030F204602D000F01EF936
:1007F00003E000F01CF900F087F800202077206863
:1008000001694A0715D5C1684A0712D56FF004017E
:10081000016102222277806910F4407F204602D0D5
:1008200000F004F903E000F002F900F06DF8002098
:100830002077206801690A0715D5C1680A0712D513
:100840006FF00801016104222277C06910F0030FE4
:10085000204602D000F0EAF803E000F0E8F800F0EB
:1008600053F80020207720680169CA0615D5C168B1
:10087000CA0612D56FF01001016108222277C06903
:1008800010F4407F204602D000F0D0F803E000F0E2
:10089000CEF800F039F80020207720680169CA07F7
:1008A00008D5C168CA0705D56FF00101016120466E
:1008B00000F0BEF8206801690A0608D5C1680A067A
:1008C00005D56FF080010161204600F0B2F8206884
:1008D00001694A0608D5C1684A0605D56FF040018E
:1008E0000161204600F0A6F8206801698A060AD551
:1008F000C1688A0607D56FF0200101612046BDE876
:10090000104000F098B810BD204600F095B8F0B542
:10091000DFF878E003681E4C1E4D1F4E1F4FDFF8B6
:1009200080C0704518BFB0F1804F03D0604518BF3C
:10093000B84209D14A6823F07003134370451CBFC5
:10094000B0F1804F604507D0B84218BFB04203D025
:10095000A84218BFA04203D1CA6823F440731343CE
:100960004A6923F080031343036070458B68C362B8
:1009700018BFB0420A68826203D0A84218BFA042E2
:1009800001D10969016301224261F0BD002C0140DF
:100990000048014000440140004001400008004080
:1009A000000400401CB508220021684600F045F80C
:1009B0001B4C1C482060002140F691106060E060F4
:1009C000A1608020A0612046FFF7CEFE08B100F0B4
:1009D00083F820210091002201926946204600F010
:1009E0007DF808B100F078F813BD00680D49884221
:1009F00000D0704780B50C48026842F020020260C7
:100A00000022006800F020000090002100983720AC
:100A1000FFF762FEBDE802403720FFF77ABE000014
:100A200010000020001400401C1002407047704766
:100A30007047704770477047704710B504461046BE
:100A40000A460146204600F069F8204610BD000025
:100A500080B54FF0006000F095F800F0B7F800F0B6
:100A600011F800F0CDF8FFF79DFF0548FFF789FE6C
:100A700043F6982000F002F900F08DF8FEE7000040
:100A80001000002000B58FB02822002105A8FFF734
:100A9000D4FF142200216846FFF7CFFF0221012274
:100AA00005910992102102220A910C9200214FF423
:100AB00080120D910E9205A8FFF799FB022101917A
:100AC0000F200090002200210292039104926846B8
:100AD000FFF717FD0FB000BD7047000070B500F1C3
:100AE0003C031A78012A01D1022070BD01221A703C
:100AF00002245C7004686568A6684A68096825F085
:100B000070050D43656026F0800600681643866018
:100B1000012159700020187070BD000062F30F228F
:100B200062F31F42401810F0030308D0C91A1FD304
:100B3000DB0748BF00F8012D28BF20F8022D130065
:100B400030B414461546103928BF20E93C00FAD8C5
:100B5000490728BF20E90C0048BF40F8042D890050
:100B600028BF20F8022D48BF00F8012D30BC704787
:100B7000C91818BF00F8012DCB0728BF00F8012DB8
:100B80007047000072B60B490860BFF34F8F62B622
:100B9000BFF36F8F704780B572B600F083F800F036
:100BA00020F8FFF7BDFA044800F008F8BDE801405E
:100BB0000847000008ED00E00000010841680068F7
:100BC00080F30888BFF34F8F7047000080B5032083
:100BD000FFF775FD0020FFF745FD00F06BF80020E2
:100BE00002BD80B505484FF0FF3101600022426030
:100BF0000160026000F080F8002002BD0C1002408D
:100C000018B585B01022002101A8FFF716FF19487A
:100C1000194C016841F010010160026802F01002F5
:100C200000920099026842F020020260036803F01B
:100C3000200300930099026842F00402026000223F
:100C4000006800F0040000904FF4407100982046C6
:100C500000F014F94FF44071019101220292002139
:100C600003910222049201A9204600F047F806B041
:100C700010BD00BF181002400010014038B50446F6
:100C8000FFF7EAFC14F1010F054602D00449087889
:100C90000419FFF7E1FC401BA042FAD331BD00BFAD
:100CA000000000200248016821F002010160704745
:100CB00010E000E00E4881B0016841F001010160E0
:100CC000026802F0010200920099426842F08052EC
:100CD0004260406800F0805000900098054801682C
:100CE00021F0E06141F00071016001B0704700BF88
:100CF0001810024004000140704700002DE9F84739
:100D00004FF0000E00245F4A5F4BDFF880814FF008
:100D10000F0982460CE0D7683840D06006E0956045
:100D20004D68AD02F7D5D0680743D7600EF1010ECC
:100D30000F6837FA0EF000F09F80012000FA0EF6DF
:100D40003740B742F2D1486838B301281AD0022898
:100D50001DD003282ED0112816D012281AD04C4DA1
:100D6000A8421CBF4B4DA84217D04B4DA8421CBFF8
:100D70004A4DA84211D04A4DA8421CBF494DA84235
:100D80000BD018E0CC6816E0CC68241D13E0CC68CA
:100D9000083410E0CC680C340DE0886808B90424ED
:100DA00009E0012819BF0824CAF814600824CAF809
:100DB000106000E00024B7F5807F03D250464FEA70
:100DC0008E0C05E0AEF108050AF104004FEA850C2F
:100DD000056809FA0CF6B54304FA0CF635430560CC
:100DE0004868C000A2D5D8F8000040F00100C8F85B
:100DF0000000D8F8005005F0010500954FEA8E0577
:100E000000984FEA9E0053F8206005F00C0C09FA98
:100E10000CF526EA0505244EB24508BF00260ED083
:100E2000224EB24508BF012609D0214EB24508BF67
:100E3000022604D01F4EB2450CBF0326042606FA34
:100E40000CF6354343F82050F8434D68ED03156820
:100E50004CBF3D43054015604D68AD0355684CBF20
:100E60003D43054055604D689668ED024CBF47EA2A
:100E7000060500EA060552E7BDE8F18702B9090454
:100E80000161704700040140080001401810024051
:100E900000001110000012100000211000002210AC
:100EA000000031100000321000080140000C014029
:100EB000001001400014014010B50F4A0F4910689E
:100EC00040F00100106053680D480B4053601468F7
:100ED00004401460116821F4802111604FF41F0157
:100EE000506820F4FE00506091600020D0624FF006
:100EF0000061044A116010BD001002400000FFF8BC
:100F0000FFFFF6FE08ED00E000000000000000001A
:100F1000010203040607080930B501688468421815
:100F2000416802EB5103C90703D54C4401E0491C59
:100F300005D19A420AD012F9011B12F8015B00296F
:100F400004F8015BF3D4491EF7D5F2E70C3030BD4D
:100F50007047FEE7FEE7FEE7FEE770477047704721
:100F600000F00CB80348016881F480710160024808
:100F7000FFF729BC0C1001401000002002494A680C
:100F8000087882184A6070470000002010B50749B1
:100F900079441831064C7C44163404E00A68081D74
:100FA000114488470146A142F8D110BD0800000055
:100FB0001400000065FFFFFF100100001A00000090
:100FC0000000002000F00DF8002801D0FFF7DEFF40
:100FD000AFF300800020AFF30080FFF739FD00F091
:100FE00002F80120704700F001B8000007463846BB
:100FF00000F002F8FBE7000080B5AFF30080024A82
:1010000011001820ABBEFBE7260002000148804714
:1010100001480047B90E00081D100008AFF300801A
:10102000AFF30080FFF7CEFFFFF7FEBFFFF7FEBF75
:10103000FFF7FEBFFFF7FEBFFFF7FEBFFFF7FEBFE4
:10104000FFF7FEBFFFF7FEBFFFF7FEBFFFF7FEBFD4
:10105000FFF7FEBFFFF7FEBFFFF7FEBFFFF7FEBFC4
:10106000FFF7FEBFFFF7FEBFFFF7FEBFFFF7FEBFB4
:10107000FFF7FEBFFFF7FEBFFFF7FEBFFFF7FEBFA4
:10108000FFF7FEBFFFF7FEBFFFF7FEBFFFF7FEBF94
:10109000FFF7FEBFFFF7FEBFFFF7FEBFFFF7FEBF84
:1010A000FFF7FEBFFFF7FEBFFFF7FEBFFFF7FEBF74
:1010B000FFF7FEBFFFF7FEBFFFF7FEBFFFF7FEBF64
:1010C000FFF7FEBFFFF7FEBF0001F9000010FC00B4
:0510D0000124F4BF0043
:040000050800101DC2
:00000001FF
